{
  "address": "0x5FbDB2315678afecb367f032d93F642f64180aa3",
  "abi": [
    {
      "inputs": [
        {
          "internalType": "uint256",
          "name": "_maxSupply",
          "type": "uint256"
        }
      ],
      "stateMutability": "nonpayable",
      "type": "constructor"
    },
    {
      "anonymous": false,
      "inputs": [
        {
          "indexed": true,
          "internalType": "address",
          "name": "owner",
          "type": "address"
        },
        {
          "indexed": true,
          "internalType": "address",
          "name": "spender",
          "type": "address"
        },
        {
          "indexed": false,
          "internalType": "uint256",
          "name": "value",
          "type": "uint256"
        }
      ],
      "name": "Approval",
      "type": "event"
    },
    {
      "anonymous": false,
      "inputs": [
        {
          "indexed": true,
          "internalType": "address",
          "name": "delegator",
          "type": "address"
        },
        {
          "indexed": true,
          "internalType": "address",
          "name": "fromDelegate",
          "type": "address"
        },
        {
          "indexed": true,
          "internalType": "address",
          "name": "toDelegate",
          "type": "address"
        }
      ],
      "name": "DelegateChanged",
      "type": "event"
    },
    {
      "anonymous": false,
      "inputs": [
        {
          "indexed": true,
          "internalType": "address",
          "name": "delegate",
          "type": "address"
        },
        {
          "indexed": false,
          "internalType": "uint256",
          "name": "previousBalance",
          "type": "uint256"
        },
        {
          "indexed": false,
          "internalType": "uint256",
          "name": "newBalance",
          "type": "uint256"
        }
      ],
      "name": "DelegateVotesChanged",
      "type": "event"
    },
    {
      "anonymous": false,
      "inputs": [
        {
          "indexed": true,
          "internalType": "address",
          "name": "from",
          "type": "address"
        },
        {
          "indexed": true,
          "internalType": "address",
          "name": "to",
          "type": "address"
        },
        {
          "indexed": false,
          "internalType": "uint256",
          "name": "value",
          "type": "uint256"
        }
      ],
      "name": "Transfer",
      "type": "event"
    },
    {
      "inputs": [],
      "name": "DOMAIN_SEPARATOR",
      "outputs": [
        {
          "internalType": "bytes32",
          "name": "",
          "type": "bytes32"
        }
      ],
      "stateMutability": "view",
      "type": "function"
    },
    {
      "inputs": [
        {
          "internalType": "address",
          "name": "owner",
          "type": "address"
        },
        {
          "internalType": "address",
          "name": "spender",
          "type": "address"
        }
      ],
      "name": "allowance",
      "outputs": [
        {
          "internalType": "uint256",
          "name": "",
          "type": "uint256"
        }
      ],
      "stateMutability": "view",
      "type": "function"
    },
    {
      "inputs": [
        {
          "internalType": "address",
          "name": "spender",
          "type": "address"
        },
        {
          "internalType": "uint256",
          "name": "amount",
          "type": "uint256"
        }
      ],
      "name": "approve",
      "outputs": [
        {
          "internalType": "bool",
          "name": "",
          "type": "bool"
        }
      ],
      "stateMutability": "nonpayable",
      "type": "function"
    },
    {
      "inputs": [
        {
          "internalType": "address",
          "name": "account",
          "type": "address"
        }
      ],
      "name": "balanceOf",
      "outputs": [
        {
          "internalType": "uint256",
          "name": "",
          "type": "uint256"
        }
      ],
      "stateMutability": "view",
      "type": "function"
    },
    {
      "inputs": [
        {
          "internalType": "address",
          "name": "account",
          "type": "address"
        },
        {
          "internalType": "uint32",
          "name": "pos",
          "type": "uint32"
        }
      ],
      "name": "checkpoints",
      "outputs": [
        {
          "components": [
            {
              "internalType": "uint32",
              "name": "fromBlock",
              "type": "uint32"
            },
            {
              "internalType": "uint224",
              "name": "votes",
              "type": "uint224"
            }
          ],
          "internalType": "struct ERC20Votes.Checkpoint",
          "name": "",
          "type": "tuple"
        }
      ],
      "stateMutability": "view",
      "type": "function"
    },
    {
      "inputs": [],
      "name": "decimals",
      "outputs": [
        {
          "internalType": "uint8",
          "name": "",
          "type": "uint8"
        }
      ],
      "stateMutability": "view",
      "type": "function"
    },
    {
      "inputs": [
        {
          "internalType": "address",
          "name": "spender",
          "type": "address"
        },
        {
          "internalType": "uint256",
          "name": "subtractedValue",
          "type": "uint256"
        }
      ],
      "name": "decreaseAllowance",
      "outputs": [
        {
          "internalType": "bool",
          "name": "",
          "type": "bool"
        }
      ],
      "stateMutability": "nonpayable",
      "type": "function"
    },
    {
      "inputs": [
        {
          "internalType": "address",
          "name": "delegatee",
          "type": "address"
        }
      ],
      "name": "delegate",
      "outputs": [],
      "stateMutability": "nonpayable",
      "type": "function"
    },
    {
      "inputs": [
        {
          "internalType": "address",
          "name": "delegatee",
          "type": "address"
        },
        {
          "internalType": "uint256",
          "name": "nonce",
          "type": "uint256"
        },
        {
          "internalType": "uint256",
          "name": "expiry",
          "type": "uint256"
        },
        {
          "internalType": "uint8",
          "name": "v",
          "type": "uint8"
        },
        {
          "internalType": "bytes32",
          "name": "r",
          "type": "bytes32"
        },
        {
          "internalType": "bytes32",
          "name": "s",
          "type": "bytes32"
        }
      ],
      "name": "delegateBySig",
      "outputs": [],
      "stateMutability": "nonpayable",
      "type": "function"
    },
    {
      "inputs": [
        {
          "internalType": "address",
          "name": "account",
          "type": "address"
        }
      ],
      "name": "delegates",
      "outputs": [
        {
          "internalType": "address",
          "name": "",
          "type": "address"
        }
      ],
      "stateMutability": "view",
      "type": "function"
    },
    {
      "inputs": [],
      "name": "getMaxSupply",
      "outputs": [
        {
          "internalType": "uint256",
          "name": "",
          "type": "uint256"
        }
      ],
      "stateMutability": "view",
      "type": "function"
    },
    {
      "inputs": [
        {
          "internalType": "uint256",
          "name": "blockNumber",
          "type": "uint256"
        }
      ],
      "name": "getPastTotalSupply",
      "outputs": [
        {
          "internalType": "uint256",
          "name": "",
          "type": "uint256"
        }
      ],
      "stateMutability": "view",
      "type": "function"
    },
    {
      "inputs": [
        {
          "internalType": "address",
          "name": "account",
          "type": "address"
        },
        {
          "internalType": "uint256",
          "name": "blockNumber",
          "type": "uint256"
        }
      ],
      "name": "getPastVotes",
      "outputs": [
        {
          "internalType": "uint256",
          "name": "",
          "type": "uint256"
        }
      ],
      "stateMutability": "view",
      "type": "function"
    },
    {
      "inputs": [
        {
          "internalType": "address",
          "name": "account",
          "type": "address"
        }
      ],
      "name": "getVotes",
      "outputs": [
        {
          "internalType": "uint256",
          "name": "",
          "type": "uint256"
        }
      ],
      "stateMutability": "view",
      "type": "function"
    },
    {
      "inputs": [
        {
          "internalType": "address",
          "name": "spender",
          "type": "address"
        },
        {
          "internalType": "uint256",
          "name": "addedValue",
          "type": "uint256"
        }
      ],
      "name": "increaseAllowance",
      "outputs": [
        {
          "internalType": "bool",
          "name": "",
          "type": "bool"
        }
      ],
      "stateMutability": "nonpayable",
      "type": "function"
    },
    {
      "inputs": [],
      "name": "name",
      "outputs": [
        {
          "internalType": "string",
          "name": "",
          "type": "string"
        }
      ],
      "stateMutability": "view",
      "type": "function"
    },
    {
      "inputs": [
        {
          "internalType": "address",
          "name": "owner",
          "type": "address"
        }
      ],
      "name": "nonces",
      "outputs": [
        {
          "internalType": "uint256",
          "name": "",
          "type": "uint256"
        }
      ],
      "stateMutability": "view",
      "type": "function"
    },
    {
      "inputs": [
        {
          "internalType": "address",
          "name": "account",
          "type": "address"
        }
      ],
      "name": "numCheckpoints",
      "outputs": [
        {
          "internalType": "uint32",
          "name": "",
          "type": "uint32"
        }
      ],
      "stateMutability": "view",
      "type": "function"
    },
    {
      "inputs": [
        {
          "internalType": "address",
          "name": "owner",
          "type": "address"
        },
        {
          "internalType": "address",
          "name": "spender",
          "type": "address"
        },
        {
          "internalType": "uint256",
          "name": "value",
          "type": "uint256"
        },
        {
          "internalType": "uint256",
          "name": "deadline",
          "type": "uint256"
        },
        {
          "internalType": "uint8",
          "name": "v",
          "type": "uint8"
        },
        {
          "internalType": "bytes32",
          "name": "r",
          "type": "bytes32"
        },
        {
          "internalType": "bytes32",
          "name": "s",
          "type": "bytes32"
        }
      ],
      "name": "permit",
      "outputs": [],
      "stateMutability": "nonpayable",
      "type": "function"
    },
    {
      "inputs": [],
      "name": "symbol",
      "outputs": [
        {
          "internalType": "string",
          "name": "",
          "type": "string"
        }
      ],
      "stateMutability": "view",
      "type": "function"
    },
    {
      "inputs": [],
      "name": "totalSupply",
      "outputs": [
        {
          "internalType": "uint256",
          "name": "",
          "type": "uint256"
        }
      ],
      "stateMutability": "view",
      "type": "function"
    },
    {
      "inputs": [
        {
          "internalType": "address",
          "name": "to",
          "type": "address"
        },
        {
          "internalType": "uint256",
          "name": "amount",
          "type": "uint256"
        }
      ],
      "name": "transfer",
      "outputs": [
        {
          "internalType": "bool",
          "name": "",
          "type": "bool"
        }
      ],
      "stateMutability": "nonpayable",
      "type": "function"
    },
    {
      "inputs": [
        {
          "internalType": "address",
          "name": "from",
          "type": "address"
        },
        {
          "internalType": "address",
          "name": "to",
          "type": "address"
        },
        {
          "internalType": "uint256",
          "name": "amount",
          "type": "uint256"
        }
      ],
      "name": "transferFrom",
      "outputs": [
        {
          "internalType": "bool",
          "name": "",
          "type": "bool"
        }
      ],
      "stateMutability": "nonpayable",
      "type": "function"
    }
  ],
  "transactionHash": "0xa789f489a19124383517220a22c87ffd6d35a1fe2b33ce51b4db79bbe7047b04",
  "args": [
    "1000000000000000000000000"
  ],
  "numDeployments": 1,
  "solcInputHash": "e15c180cd3014bd72f83b4238b9e9f50",
  "bytecode": "0x6101406040523480156200001257600080fd5b506040516200491638038062004916833981810160405281019062000038919062000c71565b6040518060400160405280600f81526020017f476f7665726e616e6365546f6b656e0000000000000000000000000000000000815250806040518060400160405280600181526020017f31000000000000000000000000000000000000000000000000000000000000008152506040518060400160405280600f81526020017f476f7665726e616e6365546f6b656e00000000000000000000000000000000008152506040518060400160405280600281526020017f475400000000000000000000000000000000000000000000000000000000000081525081600390805190602001906200012992919062000b81565b5080600490805190602001906200014292919062000b81565b50505060008280519060200120905060008280519060200120905060007f8b73c3c69bb8fe3d512ecc4cf759cc79239f7b179b0ffacaa9a75d522b39400f90508260e081815250508161010081815250504660a08181525050620001ae8184846200021d60201b60201c565b608081815250503073ffffffffffffffffffffffffffffffffffffffff1660c08173ffffffffffffffffffffffffffffffffffffffff1660601b8152505080610120818152505050505050505080600a819055506200021633600a546200025960201b60201c565b5062001161565b600083838346306040516020016200023a95949392919062000d14565b6040516020818303038152906040528051906020012090509392505050565b6200027082826200027460201b62000eae1760201c565b5050565b6200028b82826200033260201b62000f3b1760201c565b6200029b620004ab60201b60201c565b7bffffffffffffffffffffffffffffffffffffffffffffffffffffffff16620002c9620004cf60201b60201c565b11156200030d576040517f08c379a0000000000000000000000000000000000000000000000000000000008152600401620003049062000df8565b60405180910390fd5b6200032c6009620004d960201b6200109b1783620004f160201b60201c565b50505050565b600073ffffffffffffffffffffffffffffffffffffffff168273ffffffffffffffffffffffffffffffffffffffff161415620003a5576040517f08c379a00000000000000000000000000000000000000000000000000000000081526004016200039c9062000e6a565b60405180910390fd5b620003b960008383620007a260201b60201c565b8060026000828254620003cd919062000ebb565b92505081905550806000808473ffffffffffffffffffffffffffffffffffffffff1673ffffffffffffffffffffffffffffffffffffffff168152602001908152602001600020600082825462000424919062000ebb565b925050819055508173ffffffffffffffffffffffffffffffffffffffff16600073ffffffffffffffffffffffffffffffffffffffff167fddf252ad1be2c89b69c2b068fc378daa952ba7f163c4a11628f55a4df523b3ef836040516200048b919062000f18565b60405180910390a3620004a760008383620007a760201b60201c565b5050565b60007bffffffffffffffffffffffffffffffffffffffffffffffffffffffff905090565b6000600254905090565b60008183620004e9919062000ebb565b905092915050565b6000806000858054905090506000811462000566578560018262000516919062000f35565b815481106200052a576200052962000f70565b5b9060005260206000200160000160049054906101000a90047bffffffffffffffffffffffffffffffffffffffffffffffffffffffff1662000569565b60005b7bffffffffffffffffffffffffffffffffffffffffffffffffffffffff1692506200059583858760201c565b9150600081118015620005ee57504386600183620005b4919062000f35565b81548110620005c857620005c762000f70565b5b9060005260206000200160000160009054906101000a900463ffffffff1663ffffffff16145b156200068f576200060a82620007c460201b620010b11760201c565b866001836200061a919062000f35565b815481106200062e576200062d62000f70565b5b9060005260206000200160000160046101000a8154817bffffffffffffffffffffffffffffffffffffffffffffffffffffffff02191690837bffffffffffffffffffffffffffffffffffffffffffffffffffffffff16021790555062000799565b856040518060400160405280620006b1436200083260201b6200111c1760201c565b63ffffffff168152602001620006d285620007c460201b620010b11760201c565b7bffffffffffffffffffffffffffffffffffffffffffffffffffffffff168152509080600181540180825580915050600190039060005260206000200160009091909190915060008201518160000160006101000a81548163ffffffff021916908363ffffffff16021790555060208201518160000160046101000a8154817bffffffffffffffffffffffffffffffffffffffffffffffffffffffff02191690837bffffffffffffffffffffffffffffffffffffffffffffffffffffffff16021790555050505b50935093915050565b505050565b620007bf8383836200088860201b6200116f1760201c565b505050565b60007bffffffffffffffffffffffffffffffffffffffffffffffffffffffff80168211156200082a576040517f08c379a0000000000000000000000000000000000000000000000000000000008152600401620008219062001015565b60405180910390fd5b819050919050565b600063ffffffff801682111562000880576040517f08c379a00000000000000000000000000000000000000000000000000000000081526004016200087790620010ad565b60405180910390fd5b819050919050565b620008a0838383620008d860201b6200119a1760201c565b620008d3620008b584620008dd60201b60201c565b620008c684620008dd60201b60201c565b836200094660201b60201c565b505050565b505050565b6000600760008373ffffffffffffffffffffffffffffffffffffffff1673ffffffffffffffffffffffffffffffffffffffff16815260200190815260200160002060009054906101000a900473ffffffffffffffffffffffffffffffffffffffff169050919050565b8173ffffffffffffffffffffffffffffffffffffffff168373ffffffffffffffffffffffffffffffffffffffff1614158015620009835750600081115b1562000b6457600073ffffffffffffffffffffffffffffffffffffffff168373ffffffffffffffffffffffffffffffffffffffff161462000a765760008062000a1d600860008773ffffffffffffffffffffffffffffffffffffffff1673ffffffffffffffffffffffffffffffffffffffff16815260200190815260200160002062000b6960201b6200119f1785620004f160201b60201c565b915091508473ffffffffffffffffffffffffffffffffffffffff167fdec2bacdd2f05b59de34da9b523dff8be42e5e38e818c82fdb0bae774387a724838360405162000a6b929190620010cf565b60405180910390a250505b600073ffffffffffffffffffffffffffffffffffffffff168273ffffffffffffffffffffffffffffffffffffffff161462000b635760008062000b0a600860008673ffffffffffffffffffffffffffffffffffffffff1673ffffffffffffffffffffffffffffffffffffffff168152602001908152602001600020620004d960201b6200109b1785620004f160201b60201c565b915091508373ffffffffffffffffffffffffffffffffffffffff167fdec2bacdd2f05b59de34da9b523dff8be42e5e38e818c82fdb0bae774387a724838360405162000b58929190620010cf565b60405180910390a250505b5b505050565b6000818362000b79919062000f35565b905092915050565b82805462000b8f906200112b565b90600052602060002090601f01602090048101928262000bb3576000855562000bff565b82601f1062000bce57805160ff191683800117855562000bff565b8280016001018555821562000bff579182015b8281111562000bfe57825182559160200191906001019062000be1565b5b50905062000c0e919062000c12565b5090565b5b8082111562000c2d57600081600090555060010162000c13565b5090565b600080fd5b6000819050919050565b62000c4b8162000c36565b811462000c5757600080fd5b50565b60008151905062000c6b8162000c40565b92915050565b60006020828403121562000c8a5762000c8962000c31565b5b600062000c9a8482850162000c5a565b91505092915050565b6000819050919050565b62000cb88162000ca3565b82525050565b62000cc98162000c36565b82525050565b600073ffffffffffffffffffffffffffffffffffffffff82169050919050565b600062000cfc8262000ccf565b9050919050565b62000d0e8162000cef565b82525050565b600060a08201905062000d2b600083018862000cad565b62000d3a602083018762000cad565b62000d49604083018662000cad565b62000d58606083018562000cbe565b62000d67608083018462000d03565b9695505050505050565b600082825260208201905092915050565b7f4552433230566f7465733a20746f74616c20737570706c79207269736b73206f60008201527f766572666c6f77696e6720766f74657300000000000000000000000000000000602082015250565b600062000de060308362000d71565b915062000ded8262000d82565b604082019050919050565b6000602082019050818103600083015262000e138162000dd1565b9050919050565b7f45524332303a206d696e7420746f20746865207a65726f206164647265737300600082015250565b600062000e52601f8362000d71565b915062000e5f8262000e1a565b602082019050919050565b6000602082019050818103600083015262000e858162000e43565b9050919050565b7f4e487b7100000000000000000000000000000000000000000000000000000000600052601160045260246000fd5b600062000ec88262000c36565b915062000ed58362000c36565b9250827fffffffffffffffffffffffffffffffffffffffffffffffffffffffffffffffff0382111562000f0d5762000f0c62000e8c565b5b828201905092915050565b600060208201905062000f2f600083018462000cbe565b92915050565b600062000f428262000c36565b915062000f4f8362000c36565b92508282101562000f655762000f6462000e8c565b5b828203905092915050565b7f4e487b7100000000000000000000000000000000000000000000000000000000600052603260045260246000fd5b7f53616665436173743a2076616c756520646f65736e27742066697420696e203260008201527f3234206269747300000000000000000000000000000000000000000000000000602082015250565b600062000ffd60278362000d71565b91506200100a8262000f9f565b604082019050919050565b60006020820190508181036000830152620010308162000fee565b9050919050565b7f53616665436173743a2076616c756520646f65736e27742066697420696e203360008201527f3220626974730000000000000000000000000000000000000000000000000000602082015250565b60006200109560268362000d71565b9150620010a28262001037565b604082019050919050565b60006020820190508181036000830152620010c88162001086565b9050919050565b6000604082019050620010e6600083018562000cbe565b620010f5602083018462000cbe565b9392505050565b7f4e487b7100000000000000000000000000000000000000000000000000000000600052602260045260246000fd5b600060028204905060018216806200114457607f821691505b602082108114156200115b576200115a620010fc565b5b50919050565b60805160a05160c05160601c60e0516101005161012051613762620011b46000396000611743015260006117850152600061176401526000611699015260006116ef0152600061171801526137626000f3fe608060405234801561001057600080fd5b506004361061014d5760003560e01c80636fcfff45116100c3578063a457c2d71161007c578063a457c2d714610402578063a9059cbb14610432578063c3cda52014610462578063d505accf1461047e578063dd62ed3e1461049a578063f1127ed8146104ca5761014d565b80636fcfff45146102f457806370a08231146103245780637ecebe00146103545780638e539e8c1461038457806395d89b41146103b45780639ab24eb0146103d25761014d565b80633644e515116101155780633644e5151461020c578063395093511461022a5780633a46b1a81461025a5780634c0f38c21461028a578063587cde1e146102a85780635c19a95c146102d85761014d565b806306fdde0314610152578063095ea7b31461017057806318160ddd146101a057806323b872dd146101be578063313ce567146101ee575b600080fd5b61015a6104fa565b6040516101679190612392565b60405180910390f35b61018a6004803603810190610185919061244d565b61058c565b60405161019791906124a8565b60405180910390f35b6101a86105af565b6040516101b591906124d2565b60405180910390f35b6101d860048036038101906101d391906124ed565b6105b9565b6040516101e591906124a8565b60405180910390f35b6101f66105e8565b604051610203919061255c565b60405180910390f35b6102146105f1565b6040516102219190612590565b60405180910390f35b610244600480360381019061023f919061244d565b610600565b60405161025191906124a8565b60405180910390f35b610274600480360381019061026f919061244d565b610637565b60405161028191906124d2565b60405180910390f35b6102926106cb565b60405161029f91906124d2565b60405180910390f35b6102c260048036038101906102bd91906125ab565b6106d5565b6040516102cf91906125e7565b60405180910390f35b6102f260048036038101906102ed91906125ab565b61073e565b005b61030e600480360381019061030991906125ab565b610752565b60405161031b9190612621565b60405180910390f35b61033e600480360381019061033991906125ab565b6107a6565b60405161034b91906124d2565b60405180910390f35b61036e600480360381019061036991906125ab565b6107ee565b60405161037b91906124d2565b60405180910390f35b61039e6004803603810190610399919061263c565b61083e565b6040516103ab91906124d2565b60405180910390f35b6103bc610894565b6040516103c99190612392565b60405180910390f35b6103ec60048036038101906103e791906125ab565b610926565b6040516103f991906124d2565b60405180910390f35b61041c6004803603810190610417919061244d565b610a37565b60405161042991906124a8565b60405180910390f35b61044c6004803603810190610447919061244d565b610aae565b60405161045991906124a8565b60405180910390f35b61047c600480360381019061047791906126c1565b610ad1565b005b6104986004803603810190610493919061274e565b610bd5565b005b6104b460048036038101906104af91906127f0565b610d17565b6040516104c191906124d2565b60405180910390f35b6104e460048036038101906104df919061285c565b610d9e565b6040516104f19190612911565b60405180910390f35b6060600380546105099061295b565b80601f01602080910402602001604051908101604052809291908181526020018280546105359061295b565b80156105825780601f1061055757610100808354040283529160200191610582565b820191906000526020600020905b81548152906001019060200180831161056557829003601f168201915b5050505050905090565b6000806105976111b5565b90506105a48185856111bd565b600191505092915050565b6000600254905090565b6000806105c46111b5565b90506105d1858285611388565b6105dc858585611414565b60019150509392505050565b60006012905090565b60006105fb611695565b905090565b60008061060b6111b5565b905061062c81858561061d8589610d17565b61062791906129bc565b6111bd565b600191505092915050565b600043821061067b576040517f08c379a000000000000000000000000000000000000000000000000000000000815260040161067290612a5e565b60405180910390fd5b6106c3600860008573ffffffffffffffffffffffffffffffffffffffff1673ffffffffffffffffffffffffffffffffffffffff168152602001908152602001600020836117af565b905092915050565b6000600a54905090565b6000600760008373ffffffffffffffffffffffffffffffffffffffff1673ffffffffffffffffffffffffffffffffffffffff16815260200190815260200160002060009054906101000a900473ffffffffffffffffffffffffffffffffffffffff169050919050565b61074f6107496111b5565b826118bb565b50565b600061079f600860008473ffffffffffffffffffffffffffffffffffffffff1673ffffffffffffffffffffffffffffffffffffffff1681526020019081526020016000208054905061111c565b9050919050565b60008060008373ffffffffffffffffffffffffffffffffffffffff1673ffffffffffffffffffffffffffffffffffffffff168152602001908152602001600020549050919050565b6000610837600560008473ffffffffffffffffffffffffffffffffffffffff1673ffffffffffffffffffffffffffffffffffffffff1681526020019081526020016000206119d5565b9050919050565b6000438210610882576040517f08c379a000000000000000000000000000000000000000000000000000000000815260040161087990612a5e565b60405180910390fd5b61088d6009836117af565b9050919050565b6060600480546108a39061295b565b80601f01602080910402602001604051908101604052809291908181526020018280546108cf9061295b565b801561091c5780601f106108f15761010080835404028352916020019161091c565b820191906000526020600020905b8154815290600101906020018083116108ff57829003601f168201915b5050505050905090565b600080600860008473ffffffffffffffffffffffffffffffffffffffff1673ffffffffffffffffffffffffffffffffffffffff16815260200190815260200160002080549050905060008114610a0e57600860008473ffffffffffffffffffffffffffffffffffffffff1673ffffffffffffffffffffffffffffffffffffffff1681526020019081526020016000206001826109c29190612a7e565b815481106109d3576109d2612ab2565b5b9060005260206000200160000160049054906101000a90047bffffffffffffffffffffffffffffffffffffffffffffffffffffffff16610a11565b60005b7bffffffffffffffffffffffffffffffffffffffffffffffffffffffff16915050919050565b600080610a426111b5565b90506000610a508286610d17565b905083811015610a95576040517f08c379a0000000000000000000000000000000000000000000000000000000008152600401610a8c90612b53565b60405180910390fd5b610aa282868684036111bd565b60019250505092915050565b600080610ab96111b5565b9050610ac6818585611414565b600191505092915050565b83421115610b14576040517f08c379a0000000000000000000000000000000000000000000000000000000008152600401610b0b90612bbf565b60405180910390fd5b6000610b76610b6e7fe48329057bfd03d55e49b547132e39cffd9c1820ad7b9d4c5307691425d15adf898989604051602001610b539493929190612bdf565b604051602081830303815290604052805190602001206119e3565b8585856119fd565b9050610b8181611a28565b8614610bc2576040517f08c379a0000000000000000000000000000000000000000000000000000000008152600401610bb990612c70565b60405180910390fd5b610bcc81886118bb565b50505050505050565b83421115610c18576040517f08c379a0000000000000000000000000000000000000000000000000000000008152600401610c0f90612cdc565b60405180910390fd5b60007f6e71edae12b1b97f4d1f60370fef10105fa2faae0126114a169c64845d6126c9888888610c478c611a28565b89604051602001610c5d96959493929190612cfc565b6040516020818303038152906040528051906020012090506000610c80826119e3565b90506000610c90828787876119fd565b90508973ffffffffffffffffffffffffffffffffffffffff168173ffffffffffffffffffffffffffffffffffffffff1614610d00576040517f08c379a0000000000000000000000000000000000000000000000000000000008152600401610cf790612da9565b60405180910390fd5b610d0b8a8a8a6111bd565b50505050505050505050565b6000600160008473ffffffffffffffffffffffffffffffffffffffff1673ffffffffffffffffffffffffffffffffffffffff16815260200190815260200160002060008373ffffffffffffffffffffffffffffffffffffffff1673ffffffffffffffffffffffffffffffffffffffff16815260200190815260200160002054905092915050565b610da66122bb565b600860008473ffffffffffffffffffffffffffffffffffffffff1673ffffffffffffffffffffffffffffffffffffffff1681526020019081526020016000208263ffffffff1681548110610dfd57610dfc612ab2565b5b906000526020600020016040518060400160405290816000820160009054906101000a900463ffffffff1663ffffffff1663ffffffff1681526020016000820160049054906101000a90047bffffffffffffffffffffffffffffffffffffffffffffffffffffffff167bffffffffffffffffffffffffffffffffffffffffffffffffffffffff167bffffffffffffffffffffffffffffffffffffffffffffffffffffffff1681525050905092915050565b610eb88282610f3b565b610ec0611a86565b7bffffffffffffffffffffffffffffffffffffffffffffffffffffffff16610ee66105af565b1115610f27576040517f08c379a0000000000000000000000000000000000000000000000000000000008152600401610f1e90612e3b565b60405180910390fd5b610f35600961109b83611aaa565b50505050565b600073ffffffffffffffffffffffffffffffffffffffff168273ffffffffffffffffffffffffffffffffffffffff161415610fab576040517f08c379a0000000000000000000000000000000000000000000000000000000008152600401610fa290612ea7565b60405180910390fd5b610fb760008383611d22565b8060026000828254610fc991906129bc565b92505081905550806000808473ffffffffffffffffffffffffffffffffffffffff1673ffffffffffffffffffffffffffffffffffffffff168152602001908152602001600020600082825461101e91906129bc565b925050819055508173ffffffffffffffffffffffffffffffffffffffff16600073ffffffffffffffffffffffffffffffffffffffff167fddf252ad1be2c89b69c2b068fc378daa952ba7f163c4a11628f55a4df523b3ef8360405161108391906124d2565b60405180910390a361109760008383611d27565b5050565b600081836110a991906129bc565b905092915050565b60007bffffffffffffffffffffffffffffffffffffffffffffffffffffffff8016821115611114576040517f08c379a000000000000000000000000000000000000000000000000000000000815260040161110b90612f39565b60405180910390fd5b819050919050565b600063ffffffff8016821115611167576040517f08c379a000000000000000000000000000000000000000000000000000000000815260040161115e90612fcb565b60405180910390fd5b819050919050565b61117a83838361119a565b611195611186846106d5565b61118f846106d5565b83611d37565b505050565b505050565b600081836111ad9190612a7e565b905092915050565b600033905090565b600073ffffffffffffffffffffffffffffffffffffffff168373ffffffffffffffffffffffffffffffffffffffff16141561122d576040517f08c379a00000000000000000000000000000000000000000000000000000000081526004016112249061305d565b60405180910390fd5b600073ffffffffffffffffffffffffffffffffffffffff168273ffffffffffffffffffffffffffffffffffffffff16141561129d576040517f08c379a0000000000000000000000000000000000000000000000000000000008152600401611294906130ef565b60405180910390fd5b80600160008573ffffffffffffffffffffffffffffffffffffffff1673ffffffffffffffffffffffffffffffffffffffff16815260200190815260200160002060008473ffffffffffffffffffffffffffffffffffffffff1673ffffffffffffffffffffffffffffffffffffffff168152602001908152602001600020819055508173ffffffffffffffffffffffffffffffffffffffff168373ffffffffffffffffffffffffffffffffffffffff167f8c5be1e5ebec7d5bd14f71427d1e84f3dd0314c0f7b2291e5b200ac8c7c3b9258360405161137b91906124d2565b60405180910390a3505050565b60006113948484610d17565b90507fffffffffffffffffffffffffffffffffffffffffffffffffffffffffffffffff811461140e5781811015611400576040517f08c379a00000000000000000000000000000000000000000000000000000000081526004016113f79061315b565b60405180910390fd5b61140d84848484036111bd565b5b50505050565b600073ffffffffffffffffffffffffffffffffffffffff168373ffffffffffffffffffffffffffffffffffffffff161415611484576040517f08c379a000000000000000000000000000000000000000000000000000000000815260040161147b906131ed565b60405180910390fd5b600073ffffffffffffffffffffffffffffffffffffffff168273ffffffffffffffffffffffffffffffffffffffff1614156114f4576040517f08c379a00000000000000000000000000000000000000000000000000000000081526004016114eb9061327f565b60405180910390fd5b6114ff838383611d22565b60008060008573ffffffffffffffffffffffffffffffffffffffff1673ffffffffffffffffffffffffffffffffffffffff16815260200190815260200160002054905081811015611585576040517f08c379a000000000000000000000000000000000000000000000000000000000815260040161157c90613311565b60405180910390fd5b8181036000808673ffffffffffffffffffffffffffffffffffffffff1673ffffffffffffffffffffffffffffffffffffffff16815260200190815260200160002081905550816000808573ffffffffffffffffffffffffffffffffffffffff1673ffffffffffffffffffffffffffffffffffffffff168152602001908152602001600020600082825461161891906129bc565b925050819055508273ffffffffffffffffffffffffffffffffffffffff168473ffffffffffffffffffffffffffffffffffffffff167fddf252ad1be2c89b69c2b068fc378daa952ba7f163c4a11628f55a4df523b3ef8460405161167c91906124d2565b60405180910390a361168f848484611d27565b50505050565b60007f000000000000000000000000000000000000000000000000000000000000000073ffffffffffffffffffffffffffffffffffffffff163073ffffffffffffffffffffffffffffffffffffffff1614801561171157507f000000000000000000000000000000000000000000000000000000000000000046145b1561173e577f000000000000000000000000000000000000000000000000000000000000000090506117ac565b6117a97f00000000000000000000000000000000000000000000000000000000000000007f00000000000000000000000000000000000000000000000000000000000000007f0000000000000000000000000000000000000000000000000000000000000000611f30565b90505b90565b6000808380549050905060005b8181101561182e5760006117d08284611f6a565b9050848682815481106117e6576117e5612ab2565b5b9060005260206000200160000160009054906101000a900463ffffffff1663ffffffff16111561181857809250611828565b60018161182591906129bc565b91505b506117bc565b6000821461189057846001836118449190612a7e565b8154811061185557611854612ab2565b5b9060005260206000200160000160049054906101000a90047bffffffffffffffffffffffffffffffffffffffffffffffffffffffff16611893565b60005b7bffffffffffffffffffffffffffffffffffffffffffffffffffffffff169250505092915050565b60006118c6836106d5565b905060006118d3846107a6565b905082600760008673ffffffffffffffffffffffffffffffffffffffff1673ffffffffffffffffffffffffffffffffffffffff16815260200190815260200160002060006101000a81548173ffffffffffffffffffffffffffffffffffffffff021916908373ffffffffffffffffffffffffffffffffffffffff1602179055508273ffffffffffffffffffffffffffffffffffffffff168273ffffffffffffffffffffffffffffffffffffffff168573ffffffffffffffffffffffffffffffffffffffff167f3134e8a2e6d97e929a7e54011ea5485d7d196dd5f0ba4d4ef95803e8e3fc257f60405160405180910390a46119cf828483611d37565b50505050565b600081600001549050919050565b60006119f66119f0611695565b83611f90565b9050919050565b6000806000611a0e87878787611fc3565b91509150611a1b816120d0565b8192505050949350505050565b600080600560008473ffffffffffffffffffffffffffffffffffffffff1673ffffffffffffffffffffffffffffffffffffffff1681526020019081526020016000209050611a75816119d5565b9150611a80816122a5565b50919050565b60007bffffffffffffffffffffffffffffffffffffffffffffffffffffffff905090565b60008060008580549050905060008114611b185785600182611acc9190612a7e565b81548110611add57611adc612ab2565b5b9060005260206000200160000160049054906101000a90047bffffffffffffffffffffffffffffffffffffffffffffffffffffffff16611b1b565b60005b7bffffffffffffffffffffffffffffffffffffffffffffffffffffffff169250611b4983858763ffffffff16565b9150600081118015611b9c57504386600183611b659190612a7e565b81548110611b7657611b75612ab2565b5b9060005260206000200160000160009054906101000a900463ffffffff1663ffffffff16145b15611c2957611baa826110b1565b86600183611bb89190612a7e565b81548110611bc957611bc8612ab2565b5b9060005260206000200160000160046101000a8154817bffffffffffffffffffffffffffffffffffffffffffffffffffffffff02191690837bffffffffffffffffffffffffffffffffffffffffffffffffffffffff160217905550611d19565b856040518060400160405280611c3e4361111c565b63ffffffff168152602001611c52856110b1565b7bffffffffffffffffffffffffffffffffffffffffffffffffffffffff168152509080600181540180825580915050600190039060005260206000200160009091909190915060008201518160000160006101000a81548163ffffffff021916908363ffffffff16021790555060208201518160000160046101000a8154817bffffffffffffffffffffffffffffffffffffffffffffffffffffffff02191690837bffffffffffffffffffffffffffffffffffffffffffffffffffffffff16021790555050505b50935093915050565b505050565b611d3283838361116f565b505050565b8173ffffffffffffffffffffffffffffffffffffffff168373ffffffffffffffffffffffffffffffffffffffff1614158015611d735750600081115b15611f2b57600073ffffffffffffffffffffffffffffffffffffffff168373ffffffffffffffffffffffffffffffffffffffff1614611e5157600080611dfa600860008773ffffffffffffffffffffffffffffffffffffffff1673ffffffffffffffffffffffffffffffffffffffff16815260200190815260200160002061119f85611aaa565b915091508473ffffffffffffffffffffffffffffffffffffffff167fdec2bacdd2f05b59de34da9b523dff8be42e5e38e818c82fdb0bae774387a7248383604051611e46929190613331565b60405180910390a250505b600073ffffffffffffffffffffffffffffffffffffffff168273ffffffffffffffffffffffffffffffffffffffff1614611f2a57600080611ed3600860008673ffffffffffffffffffffffffffffffffffffffff1673ffffffffffffffffffffffffffffffffffffffff16815260200190815260200160002061109b85611aaa565b915091508373ffffffffffffffffffffffffffffffffffffffff167fdec2bacdd2f05b59de34da9b523dff8be42e5e38e818c82fdb0bae774387a7248383604051611f1f929190613331565b60405180910390a250505b5b505050565b60008383834630604051602001611f4b95949392919061335a565b6040516020818303038152906040528051906020012090509392505050565b60006002828418611f7b91906133dc565b828416611f8891906129bc565b905092915050565b60008282604051602001611fa5929190613485565b60405160208183030381529060405280519060200120905092915050565b6000807f7fffffffffffffffffffffffffffffff5d576e7357a4501ddfe92f46681b20a08360001c1115611ffe5760006003915091506120c7565b601b8560ff16141580156120165750601c8560ff1614155b156120285760006004915091506120c7565b60006001878787876040516000815260200160405260405161204d94939291906134bc565b6020604051602081039080840390855afa15801561206f573d6000803e3d6000fd5b505050602060405103519050600073ffffffffffffffffffffffffffffffffffffffff168173ffffffffffffffffffffffffffffffffffffffff1614156120be576000600192509250506120c7565b80600092509250505b94509492505050565b600060048111156120e4576120e3613501565b5b8160048111156120f7576120f6613501565b5b1415612102576122a2565b6001600481111561211657612115613501565b5b81600481111561212957612128613501565b5b141561216a576040517f08c379a00000000000000000000000000000000000000000000000000000000081526004016121619061357c565b60405180910390fd5b6002600481111561217e5761217d613501565b5b81600481111561219157612190613501565b5b14156121d2576040517f08c379a00000000000000000000000000000000000000000000000000000000081526004016121c9906135e8565b60405180910390fd5b600360048111156121e6576121e5613501565b5b8160048111156121f9576121f8613501565b5b141561223a576040517f08c379a00000000000000000000000000000000000000000000000000000000081526004016122319061367a565b60405180910390fd5b60048081111561224d5761224c613501565b5b8160048111156122605761225f613501565b5b14156122a1576040517f08c379a00000000000000000000000000000000000000000000000000000000081526004016122989061370c565b60405180910390fd5b5b50565b6001816000016000828254019250508190555050565b6040518060400160405280600063ffffffff16815260200160007bffffffffffffffffffffffffffffffffffffffffffffffffffffffff1681525090565b600081519050919050565b600082825260208201905092915050565b60005b83811015612333578082015181840152602081019050612318565b83811115612342576000848401525b50505050565b6000601f19601f8301169050919050565b6000612364826122f9565b61236e8185612304565b935061237e818560208601612315565b61238781612348565b840191505092915050565b600060208201905081810360008301526123ac8184612359565b905092915050565b600080fd5b600073ffffffffffffffffffffffffffffffffffffffff82169050919050565b60006123e4826123b9565b9050919050565b6123f4816123d9565b81146123ff57600080fd5b50565b600081359050612411816123eb565b92915050565b6000819050919050565b61242a81612417565b811461243557600080fd5b50565b60008135905061244781612421565b92915050565b60008060408385031215612464576124636123b4565b5b600061247285828601612402565b925050602061248385828601612438565b9150509250929050565b60008115159050919050565b6124a28161248d565b82525050565b60006020820190506124bd6000830184612499565b92915050565b6124cc81612417565b82525050565b60006020820190506124e760008301846124c3565b92915050565b600080600060608486031215612506576125056123b4565b5b600061251486828701612402565b935050602061252586828701612402565b925050604061253686828701612438565b9150509250925092565b600060ff82169050919050565b61255681612540565b82525050565b6000602082019050612571600083018461254d565b92915050565b6000819050919050565b61258a81612577565b82525050565b60006020820190506125a56000830184612581565b92915050565b6000602082840312156125c1576125c06123b4565b5b60006125cf84828501612402565b91505092915050565b6125e1816123d9565b82525050565b60006020820190506125fc60008301846125d8565b92915050565b600063ffffffff82169050919050565b61261b81612602565b82525050565b60006020820190506126366000830184612612565b92915050565b600060208284031215612652576126516123b4565b5b600061266084828501612438565b91505092915050565b61267281612540565b811461267d57600080fd5b50565b60008135905061268f81612669565b92915050565b61269e81612577565b81146126a957600080fd5b50565b6000813590506126bb81612695565b92915050565b60008060008060008060c087890312156126de576126dd6123b4565b5b60006126ec89828a01612402565b96505060206126fd89828a01612438565b955050604061270e89828a01612438565b945050606061271f89828a01612680565b935050608061273089828a016126ac565b92505060a061274189828a016126ac565b9150509295509295509295565b600080600080600080600060e0888a03121561276d5761276c6123b4565b5b600061277b8a828b01612402565b975050602061278c8a828b01612402565b965050604061279d8a828b01612438565b95505060606127ae8a828b01612438565b94505060806127bf8a828b01612680565b93505060a06127d08a828b016126ac565b92505060c06127e18a828b016126ac565b91505092959891949750929550565b60008060408385031215612807576128066123b4565b5b600061281585828601612402565b925050602061282685828601612402565b9150509250929050565b61283981612602565b811461284457600080fd5b50565b60008135905061285681612830565b92915050565b60008060408385031215612873576128726123b4565b5b600061288185828601612402565b925050602061289285828601612847565b9150509250929050565b6128a581612602565b82525050565b60007bffffffffffffffffffffffffffffffffffffffffffffffffffffffff82169050919050565b6128dc816128ab565b82525050565b6040820160008201516128f8600085018261289c565b50602082015161290b60208501826128d3565b50505050565b600060408201905061292660008301846128e2565b92915050565b7f4e487b7100000000000000000000000000000000000000000000000000000000600052602260045260246000fd5b6000600282049050600182168061297357607f821691505b602082108114156129875761298661292c565b5b50919050565b7f4e487b7100000000000000000000000000000000000000000000000000000000600052601160045260246000fd5b60006129c782612417565b91506129d283612417565b9250827fffffffffffffffffffffffffffffffffffffffffffffffffffffffffffffffff03821115612a0757612a0661298d565b5b828201905092915050565b7f4552433230566f7465733a20626c6f636b206e6f7420796574206d696e656400600082015250565b6000612a48601f83612304565b9150612a5382612a12565b602082019050919050565b60006020820190508181036000830152612a7781612a3b565b9050919050565b6000612a8982612417565b9150612a9483612417565b925082821015612aa757612aa661298d565b5b828203905092915050565b7f4e487b7100000000000000000000000000000000000000000000000000000000600052603260045260246000fd5b7f45524332303a2064656372656173656420616c6c6f77616e63652062656c6f7760008201527f207a65726f000000000000000000000000000000000000000000000000000000602082015250565b6000612b3d602583612304565b9150612b4882612ae1565b604082019050919050565b60006020820190508181036000830152612b6c81612b30565b9050919050565b7f4552433230566f7465733a207369676e61747572652065787069726564000000600082015250565b6000612ba9601d83612304565b9150612bb482612b73565b602082019050919050565b60006020820190508181036000830152612bd881612b9c565b9050919050565b6000608082019050612bf46000830187612581565b612c0160208301866125d8565b612c0e60408301856124c3565b612c1b60608301846124c3565b95945050505050565b7f4552433230566f7465733a20696e76616c6964206e6f6e636500000000000000600082015250565b6000612c5a601983612304565b9150612c6582612c24565b602082019050919050565b60006020820190508181036000830152612c8981612c4d565b9050919050565b7f45524332305065726d69743a206578706972656420646561646c696e65000000600082015250565b6000612cc6601d83612304565b9150612cd182612c90565b602082019050919050565b60006020820190508181036000830152612cf581612cb9565b9050919050565b600060c082019050612d116000830189612581565b612d1e60208301886125d8565b612d2b60408301876125d8565b612d3860608301866124c3565b612d4560808301856124c3565b612d5260a08301846124c3565b979650505050505050565b7f45524332305065726d69743a20696e76616c6964207369676e61747572650000600082015250565b6000612d93601e83612304565b9150612d9e82612d5d565b602082019050919050565b60006020820190508181036000830152612dc281612d86565b9050919050565b7f4552433230566f7465733a20746f74616c20737570706c79207269736b73206f60008201527f766572666c6f77696e6720766f74657300000000000000000000000000000000602082015250565b6000612e25603083612304565b9150612e3082612dc9565b604082019050919050565b60006020820190508181036000830152612e5481612e18565b9050919050565b7f45524332303a206d696e7420746f20746865207a65726f206164647265737300600082015250565b6000612e91601f83612304565b9150612e9c82612e5b565b602082019050919050565b60006020820190508181036000830152612ec081612e84565b9050919050565b7f53616665436173743a2076616c756520646f65736e27742066697420696e203260008201527f3234206269747300000000000000000000000000000000000000000000000000602082015250565b6000612f23602783612304565b9150612f2e82612ec7565b604082019050919050565b60006020820190508181036000830152612f5281612f16565b9050919050565b7f53616665436173743a2076616c756520646f65736e27742066697420696e203360008201527f3220626974730000000000000000000000000000000000000000000000000000602082015250565b6000612fb5602683612304565b9150612fc082612f59565b604082019050919050565b60006020820190508181036000830152612fe481612fa8565b9050919050565b7f45524332303a20617070726f76652066726f6d20746865207a65726f2061646460008201527f7265737300000000000000000000000000000000000000000000000000000000602082015250565b6000613047602483612304565b915061305282612feb565b604082019050919050565b600060208201905081810360008301526130768161303a565b9050919050565b7f45524332303a20617070726f766520746f20746865207a65726f20616464726560008201527f7373000000000000000000000000000000000000000000000000000000000000602082015250565b60006130d9602283612304565b91506130e48261307d565b604082019050919050565b60006020820190508181036000830152613108816130cc565b9050919050565b7f45524332303a20696e73756666696369656e7420616c6c6f77616e6365000000600082015250565b6000613145601d83612304565b91506131508261310f565b602082019050919050565b6000602082019050818103600083015261317481613138565b9050919050565b7f45524332303a207472616e736665722066726f6d20746865207a65726f20616460008201527f6472657373000000000000000000000000000000000000000000000000000000602082015250565b60006131d7602583612304565b91506131e28261317b565b604082019050919050565b60006020820190508181036000830152613206816131ca565b9050919050565b7f45524332303a207472616e7366657220746f20746865207a65726f206164647260008201527f6573730000000000000000000000000000000000000000000000000000000000602082015250565b6000613269602383612304565b91506132748261320d565b604082019050919050565b600060208201905081810360008301526132988161325c565b9050919050565b7f45524332303a207472616e7366657220616d6f756e742065786365656473206260008201527f616c616e63650000000000000000000000000000000000000000000000000000602082015250565b60006132fb602683612304565b91506133068261329f565b604082019050919050565b6000602082019050818103600083015261332a816132ee565b9050919050565b600060408201905061334660008301856124c3565b61335360208301846124c3565b9392505050565b600060a08201905061336f6000830188612581565b61337c6020830187612581565b6133896040830186612581565b61339660608301856124c3565b6133a360808301846125d8565b9695505050505050565b7f4e487b7100000000000000000000000000000000000000000000000000000000600052601260045260246000fd5b60006133e782612417565b91506133f283612417565b925082613402576134016133ad565b5b828204905092915050565b600081905092915050565b7f1901000000000000000000000000000000000000000000000000000000000000600082015250565b600061344e60028361340d565b915061345982613418565b600282019050919050565b6000819050919050565b61347f61347a82612577565b613464565b82525050565b600061349082613441565b915061349c828561346e565b6020820191506134ac828461346e565b6020820191508190509392505050565b60006080820190506134d16000830187612581565b6134de602083018661254d565b6134eb6040830185612581565b6134f86060830184612581565b95945050505050565b7f4e487b7100000000000000000000000000000000000000000000000000000000600052602160045260246000fd5b7f45434453413a20696e76616c6964207369676e61747572650000000000000000600082015250565b6000613566601883612304565b915061357182613530565b602082019050919050565b6000602082019050818103600083015261359581613559565b9050919050565b7f45434453413a20696e76616c6964207369676e6174757265206c656e67746800600082015250565b60006135d2601f83612304565b91506135dd8261359c565b602082019050919050565b60006020820190508181036000830152613601816135c5565b9050919050565b7f45434453413a20696e76616c6964207369676e6174757265202773272076616c60008201527f7565000000000000000000000000000000000000000000000000000000000000602082015250565b6000613664602283612304565b915061366f82613608565b604082019050919050565b6000602082019050818103600083015261369381613657565b9050919050565b7f45434453413a20696e76616c6964207369676e6174757265202776272076616c60008201527f7565000000000000000000000000000000000000000000000000000000000000602082015250565b60006136f6602283612304565b91506137018261369a565b604082019050919050565b60006020820190508181036000830152613725816136e9565b905091905056fea264697066735822122046c640be8457bd3a58b9abc65d4037da61a5f2062c82fb54e4fc52f15be31b5364736f6c63430008080033",
  "devdoc": {
    "kind": "dev",
    "methods": {
      "DOMAIN_SEPARATOR()": {
        "details": "See {IERC20Permit-DOMAIN_SEPARATOR}."
      },
      "allowance(address,address)": {
        "details": "See {IERC20-allowance}."
      },
      "approve(address,uint256)": {
        "details": "See {IERC20-approve}. NOTE: If `amount` is the maximum `uint256`, the allowance is not updated on `transferFrom`. This is semantically equivalent to an infinite approval. Requirements: - `spender` cannot be the zero address."
      },
      "balanceOf(address)": {
        "details": "See {IERC20-balanceOf}."
      },
      "checkpoints(address,uint32)": {
        "details": "Get the `pos`-th checkpoint for `account`."
      },
      "decimals()": {
        "details": "Returns the number of decimals used to get its user representation. For example, if `decimals` equals `2`, a balance of `505` tokens should be displayed to a user as `5.05` (`505 / 10 ** 2`). Tokens usually opt for a value of 18, imitating the relationship between Ether and Wei. This is the value {ERC20} uses, unless this function is overridden; NOTE: This information is only used for _display_ purposes: it in no way affects any of the arithmetic of the contract, including {IERC20-balanceOf} and {IERC20-transfer}."
      },
      "decreaseAllowance(address,uint256)": {
        "details": "Atomically decreases the allowance granted to `spender` by the caller. This is an alternative to {approve} that can be used as a mitigation for problems described in {IERC20-approve}. Emits an {Approval} event indicating the updated allowance. Requirements: - `spender` cannot be the zero address. - `spender` must have allowance for the caller of at least `subtractedValue`."
      },
      "delegate(address)": {
        "details": "Delegate votes from the sender to `delegatee`."
      },
      "delegateBySig(address,uint256,uint256,uint8,bytes32,bytes32)": {
        "details": "Delegates votes from signer to `delegatee`"
      },
      "delegates(address)": {
        "details": "Get the address `account` is currently delegating to."
      },
      "getPastTotalSupply(uint256)": {
        "details": "Retrieve the `totalSupply` at the end of `blockNumber`. Note, this value is the sum of all balances. It is but NOT the sum of all the delegated votes! Requirements: - `blockNumber` must have been already mined"
      },
      "getPastVotes(address,uint256)": {
        "details": "Retrieve the number of votes for `account` at the end of `blockNumber`. Requirements: - `blockNumber` must have been already mined"
      },
      "getVotes(address)": {
        "details": "Gets the current votes balance for `account`"
      },
      "increaseAllowance(address,uint256)": {
        "details": "Atomically increases the allowance granted to `spender` by the caller. This is an alternative to {approve} that can be used as a mitigation for problems described in {IERC20-approve}. Emits an {Approval} event indicating the updated allowance. Requirements: - `spender` cannot be the zero address."
      },
      "name()": {
        "details": "Returns the name of the token."
      },
      "nonces(address)": {
        "details": "See {IERC20Permit-nonces}."
      },
      "numCheckpoints(address)": {
        "details": "Get number of checkpoints for `account`."
      },
      "permit(address,address,uint256,uint256,uint8,bytes32,bytes32)": {
        "details": "See {IERC20Permit-permit}."
      },
      "symbol()": {
        "details": "Returns the symbol of the token, usually a shorter version of the name."
      },
      "totalSupply()": {
        "details": "See {IERC20-totalSupply}."
      },
      "transfer(address,uint256)": {
        "details": "See {IERC20-transfer}. Requirements: - `to` cannot be the zero address. - the caller must have a balance of at least `amount`."
      },
      "transferFrom(address,address,uint256)": {
        "details": "See {IERC20-transferFrom}. Emits an {Approval} event indicating the updated allowance. This is not required by the EIP. See the note at the beginning of {ERC20}. NOTE: Does not update the allowance if the current allowance is the maximum `uint256`. Requirements: - `from` and `to` cannot be the zero address. - `from` must have a balance of at least `amount`. - the caller must have allowance for ``from``'s tokens of at least `amount`."
      }
    },
    "version": 1
  },
  "userdoc": {
    "kind": "user",
    "methods": {},
    "version": 1
  },
  "storageLayout": {
    "storage": [
      {
        "astId": 4110,
        "contract": "contracts/GovernanceToken.sol:GovernanceToken",
        "label": "_balances",
        "offset": 0,
        "slot": "0",
        "type": "t_mapping(t_address,t_uint256)"
      },
      {
        "astId": 4116,
        "contract": "contracts/GovernanceToken.sol:GovernanceToken",
        "label": "_allowances",
        "offset": 0,
        "slot": "1",
        "type": "t_mapping(t_address,t_mapping(t_address,t_uint256))"
      },
      {
        "astId": 4118,
        "contract": "contracts/GovernanceToken.sol:GovernanceToken",
        "label": "_totalSupply",
        "offset": 0,
        "slot": "2",
        "type": "t_uint256"
      },
      {
        "astId": 4120,
        "contract": "contracts/GovernanceToken.sol:GovernanceToken",
        "label": "_name",
        "offset": 0,
        "slot": "3",
        "type": "t_string_storage"
      },
      {
        "astId": 4122,
        "contract": "contracts/GovernanceToken.sol:GovernanceToken",
        "label": "_symbol",
        "offset": 0,
        "slot": "4",
        "type": "t_string_storage"
      },
      {
        "astId": 5443,
        "contract": "contracts/GovernanceToken.sol:GovernanceToken",
        "label": "_nonces",
        "offset": 0,
        "slot": "5",
        "type": "t_mapping(t_address,t_struct(Counter)5969_storage)"
      },
      {
        "astId": 5451,
        "contract": "contracts/GovernanceToken.sol:GovernanceToken",
        "label": "_PERMIT_TYPEHASH_DEPRECATED_SLOT",
        "offset": 0,
        "slot": "6",
        "type": "t_bytes32"
      },
      {
        "astId": 4784,
        "contract": "contracts/GovernanceToken.sol:GovernanceToken",
        "label": "_delegates",
        "offset": 0,
        "slot": "7",
        "type": "t_mapping(t_address,t_address)"
      },
      {
        "astId": 4790,
        "contract": "contracts/GovernanceToken.sol:GovernanceToken",
        "label": "_checkpoints",
        "offset": 0,
        "slot": "8",
        "type": "t_mapping(t_address,t_array(t_struct(Checkpoint)4775_storage)dyn_storage)"
      },
      {
        "astId": 4794,
        "contract": "contracts/GovernanceToken.sol:GovernanceToken",
        "label": "_totalSupplyCheckpoints",
        "offset": 0,
        "slot": "9",
        "type": "t_array(t_struct(Checkpoint)4775_storage)dyn_storage"
      },
      {
        "astId": 9813,
        "contract": "contracts/GovernanceToken.sol:GovernanceToken",
        "label": "s_maxSupply",
        "offset": 0,
        "slot": "10",
        "type": "t_uint256"
      }
    ],
    "types": {
      "t_address": {
        "encoding": "inplace",
        "label": "address",
        "numberOfBytes": "20"
      },
      "t_array(t_struct(Checkpoint)4775_storage)dyn_storage": {
        "base": "t_struct(Checkpoint)4775_storage",
        "encoding": "dynamic_array",
        "label": "struct ERC20Votes.Checkpoint[]",
        "numberOfBytes": "32"
      },
      "t_bytes32": {
        "encoding": "inplace",
        "label": "bytes32",
        "numberOfBytes": "32"
      },
      "t_mapping(t_address,t_address)": {
        "encoding": "mapping",
        "key": "t_address",
        "label": "mapping(address => address)",
        "numberOfBytes": "32",
        "value": "t_address"
      },
      "t_mapping(t_address,t_array(t_struct(Checkpoint)4775_storage)dyn_storage)": {
        "encoding": "mapping",
        "key": "t_address",
        "label": "mapping(address => struct ERC20Votes.Checkpoint[])",
        "numberOfBytes": "32",
        "value": "t_array(t_struct(Checkpoint)4775_storage)dyn_storage"
      },
      "t_mapping(t_address,t_mapping(t_address,t_uint256))": {
        "encoding": "mapping",
        "key": "t_address",
        "label": "mapping(address => mapping(address => uint256))",
        "numberOfBytes": "32",
        "value": "t_mapping(t_address,t_uint256)"
      },
      "t_mapping(t_address,t_struct(Counter)5969_storage)": {
        "encoding": "mapping",
        "key": "t_address",
        "label": "mapping(address => struct Counters.Counter)",
        "numberOfBytes": "32",
        "value": "t_struct(Counter)5969_storage"
      },
      "t_mapping(t_address,t_uint256)": {
        "encoding": "mapping",
        "key": "t_address",
        "label": "mapping(address => uint256)",
        "numberOfBytes": "32",
        "value": "t_uint256"
      },
      "t_string_storage": {
        "encoding": "bytes",
        "label": "string",
        "numberOfBytes": "32"
      },
      "t_struct(Checkpoint)4775_storage": {
        "encoding": "inplace",
        "label": "struct ERC20Votes.Checkpoint",
        "members": [
          {
            "astId": 4772,
            "contract": "contracts/GovernanceToken.sol:GovernanceToken",
            "label": "fromBlock",
            "offset": 0,
            "slot": "0",
            "type": "t_uint32"
          },
          {
            "astId": 4774,
            "contract": "contracts/GovernanceToken.sol:GovernanceToken",
            "label": "votes",
            "offset": 4,
            "slot": "0",
            "type": "t_uint224"
          }
        ],
        "numberOfBytes": "32"
      },
      "t_struct(Counter)5969_storage": {
        "encoding": "inplace",
        "label": "struct Counters.Counter",
        "members": [
          {
            "astId": 5968,
            "contract": "contracts/GovernanceToken.sol:GovernanceToken",
            "label": "_value",
            "offset": 0,
            "slot": "0",
            "type": "t_uint256"
          }
        ],
        "numberOfBytes": "32"
      },
      "t_uint224": {
        "encoding": "inplace",
        "label": "uint224",
        "numberOfBytes": "28"
      },
      "t_uint256": {
        "encoding": "inplace",
        "label": "uint256",
        "numberOfBytes": "32"
      },
      "t_uint32": {
        "encoding": "inplace",
        "label": "uint32",
        "numberOfBytes": "4"
      }
    }
  }
}